:100000000C948000000000000000000000000000D0
:1000100000000000000000000000000000000000E0
:1000200000000000000000000000000000000000D0
:1000300000000000000000000000000000000000C0
:1000400000000000000000000000000000000000B0
:1000500000000000000000000000000000000000A0
:100060000000000000000000000000000000000090
:100070000000000000000000000000000000000080
:100080000000000000000000000000000000000070
:100090000000000000000000000000000000000060
:1000A0000000000000000000000000000000000050
:1000B0000000000000000000000000000000000040
:1000C0000000000000000000000000000000000030
:1000D0000000000000000000000000000000000020
:1000E0000000000000000000000000000000000010
:1000F0000000000000000000000000000000000000
:1001000000E70AB908E204B91C9903C04B9911C071
:10011000FBCF2D9A1C99FECF03B10770000F000F83
:10012000000F000F0BB92D981C9BFECF1C99FECF22
:10013000E7CF2B9A4F9BFECF209A219A229A48997B
:10014000289A489B28984999299A499B29984A991D
:100150002A9A4A9B2A982B984F99FECF209821984B
:1001600022982B9A00000000000000000000000010
:040170002B98C6CF33
:0400000300000100F8
:00000001FF
